{
  "contractName": "Localbody",
  "abi": [
    {
      "constant": false,
      "inputs": [
        {
          "name": "newOwner",
          "type": "address"
        }
      ],
      "name": "setOwner",
      "outputs": [
        {
          "name": "",
          "type": "bool"
        }
      ],
      "payable": false,
      "stateMutability": "nonpayable",
      "type": "function"
    },
    {
      "constant": true,
      "inputs": [
        {
          "name": "",
          "type": "address"
        }
      ],
      "name": "voterMap",
      "outputs": [
        {
          "name": "isValid",
          "type": "bool"
        },
        {
          "name": "isApproved",
          "type": "bool"
        },
        {
          "name": "secret",
          "type": "bytes32"
        }
      ],
      "payable": false,
      "stateMutability": "view",
      "type": "function"
    },
    {
      "constant": true,
      "inputs": [],
      "name": "voterBaseRefund",
      "outputs": [
        {
          "name": "",
          "type": "uint256"
        }
      ],
      "payable": false,
      "stateMutability": "view",
      "type": "function"
    },
    {
      "constant": true,
      "inputs": [],
      "name": "getOwner",
      "outputs": [
        {
          "name": "",
          "type": "address"
        }
      ],
      "payable": false,
      "stateMutability": "view",
      "type": "function"
    },
    {
      "constant": true,
      "inputs": [],
      "name": "balance",
      "outputs": [
        {
          "name": "",
          "type": "uint256"
        }
      ],
      "payable": false,
      "stateMutability": "view",
      "type": "function"
    },
    {
      "inputs": [
        {
          "name": "_voterBaseRefund",
          "type": "uint256"
        }
      ],
      "payable": false,
      "stateMutability": "nonpayable",
      "type": "constructor"
    },
    {
      "anonymous": false,
      "inputs": [
        {
          "indexed": false,
          "name": "question",
          "type": "string"
        }
      ],
      "name": "LogQuestionAdded",
      "type": "event"
    },
    {
      "anonymous": false,
      "inputs": [
        {
          "indexed": false,
          "name": "question",
          "type": "string"
        }
      ],
      "name": "LogQuestionApproved",
      "type": "event"
    },
    {
      "anonymous": false,
      "inputs": [
        {
          "indexed": true,
          "name": "voterAddress",
          "type": "address"
        },
        {
          "indexed": true,
          "name": "ownerAddress",
          "type": "address"
        },
        {
          "indexed": false,
          "name": "secret",
          "type": "bytes32"
        }
      ],
      "name": "LogVoterApprovalPending",
      "type": "event"
    },
    {
      "anonymous": false,
      "inputs": [
        {
          "indexed": true,
          "name": "voterAddress",
          "type": "address"
        }
      ],
      "name": "LogVoterApproved",
      "type": "event"
    },
    {
      "anonymous": false,
      "inputs": [
        {
          "indexed": true,
          "name": "previousOwner",
          "type": "address"
        },
        {
          "indexed": true,
          "name": "newOwner",
          "type": "address"
        }
      ],
      "name": "LogOwnerSet",
      "type": "event"
    },
    {
      "constant": false,
      "inputs": [],
      "name": "addEther",
      "outputs": [],
      "payable": true,
      "stateMutability": "payable",
      "type": "function"
    },
    {
      "constant": false,
      "inputs": [
        {
          "name": "question",
          "type": "string"
        },
        {
          "name": "deadline",
          "type": "uint256"
        }
      ],
      "name": "addQuestion",
      "outputs": [
        {
          "name": "",
          "type": "bool"
        }
      ],
      "payable": false,
      "stateMutability": "nonpayable",
      "type": "function"
    },
    {
      "constant": false,
      "inputs": [
        {
          "name": "question",
          "type": "string"
        },
        {
          "name": "option",
          "type": "bytes32"
        }
      ],
      "name": "addOption",
      "outputs": [
        {
          "name": "",
          "type": "bool"
        }
      ],
      "payable": false,
      "stateMutability": "nonpayable",
      "type": "function"
    },
    {
      "constant": false,
      "inputs": [
        {
          "name": "question",
          "type": "string"
        }
      ],
      "name": "approveQuestion",
      "outputs": [
        {
          "name": "",
          "type": "bool"
        }
      ],
      "payable": false,
      "stateMutability": "nonpayable",
      "type": "function"
    },
    {
      "constant": false,
      "inputs": [
        {
          "name": "question",
          "type": "string"
        },
        {
          "name": "deadline",
          "type": "uint256"
        }
      ],
      "name": "addYesNoQuestion",
      "outputs": [
        {
          "name": "",
          "type": "bool"
        }
      ],
      "payable": false,
      "stateMutability": "nonpayable",
      "type": "function"
    },
    {
      "constant": false,
      "inputs": [
        {
          "name": "secret",
          "type": "bytes32"
        }
      ],
      "name": "createVoter",
      "outputs": [
        {
          "name": "",
          "type": "address"
        }
      ],
      "payable": false,
      "stateMutability": "nonpayable",
      "type": "function"
    },
    {
      "constant": false,
      "inputs": [
        {
          "name": "voterAddress",
          "type": "address"
        }
      ],
      "name": "approveVoter",
      "outputs": [
        {
          "name": "",
          "type": "bool"
        }
      ],
      "payable": false,
      "stateMutability": "nonpayable",
      "type": "function"
    },
    {
      "constant": false,
      "inputs": [
        {
          "name": "question",
          "type": "string"
        },
        {
          "name": "index",
          "type": "uint256"
        }
      ],
      "name": "castVote",
      "outputs": [
        {
          "name": "",
          "type": "bool"
        }
      ],
      "payable": false,
      "stateMutability": "nonpayable",
      "type": "function"
    },
    {
      "constant": false,
      "inputs": [
        {
          "name": "amount",
          "type": "uint256"
        }
      ],
      "name": "setVoterBaseRefund",
      "outputs": [
        {
          "name": "",
          "type": "bool"
        }
      ],
      "payable": false,
      "stateMutability": "nonpayable",
      "type": "function"
    },
    {
      "constant": true,
      "inputs": [
        {
          "name": "question",
          "type": "string"
        },
        {
          "name": "index",
          "type": "uint256"
        }
      ],
      "name": "getOption",
      "outputs": [
        {
          "name": "",
          "type": "bytes32"
        }
      ],
      "payable": false,
      "stateMutability": "view",
      "type": "function"
    },
    {
      "constant": true,
      "inputs": [
        {
          "name": "question",
          "type": "string"
        },
        {
          "name": "index",
          "type": "uint256"
        }
      ],
      "name": "getVotes",
      "outputs": [
        {
          "name": "",
          "type": "uint256"
        }
      ],
      "payable": false,
      "stateMutability": "view",
      "type": "function"
    },
    {
      "constant": true,
      "inputs": [
        {
          "name": "voterAddress",
          "type": "address"
        }
      ],
      "name": "getVoterApprovedStatus",
      "outputs": [
        {
          "name": "",
          "type": "bool"
        }
      ],
      "payable": false,
      "stateMutability": "view",
      "type": "function"
    },
    {
      "constant": true,
      "inputs": [
        {
          "name": "question",
          "type": "string"
        }
      ],
      "name": "getQuestionDeadline",
      "outputs": [
        {
          "name": "",
          "type": "uint256"
        }
      ],
      "payable": false,
      "stateMutability": "view",
      "type": "function"
    },
    {
      "constant": true,
      "inputs": [
        {
          "name": "question",
          "type": "string"
        },
        {
          "name": "voter",
          "type": "address"
        }
      ],
      "name": "hasUserVoted",
      "outputs": [
        {
          "name": "",
          "type": "bool"
        }
      ],
      "payable": false,
      "stateMutability": "view",
      "type": "function"
    },
    {
      "constant": true,
      "inputs": [
        {
          "name": "question",
          "type": "string"
        }
      ],
      "name": "getNumOptions",
      "outputs": [
        {
          "name": "",
          "type": "uint256"
        }
      ],
      "payable": false,
      "stateMutability": "view",
      "type": "function"
    }
  ],
  "bytecode": "0x6060604052341561000f57600080fd5b60405160208061268883398101604052808051906020019091905050336000806101000a81548173ffffffffffffffffffffffffffffffffffffffff021916908373ffffffffffffffffffffffffffffffffffffffff1602179055508060028190555050612606806100826000396000f300606060405260043610610112576000357c0100000000000000000000000000000000000000000000000000000000900463ffffffff168063119d4ddb14610117578063129cd33e1461016857806313af4035146101e65780631486d466146102375780632a2368e6146102a85780632be652251461032a57806341497385146103955780634727690714610429578063749876b01461045257806381fccd92146104d05780638894dd2b14610545578063893d20e81461054f5780638d6fcb55146105a457806395515ada146105f557806398343d1d1461065c578063a44b2cc9146106d6578063b69ef8a814610758578063e3b9e2fa14610781578063f3b332c2146107ff578063fd9029131461083a575b600080fd5b341561012257600080fd5b61014e600480803573ffffffffffffffffffffffffffffffffffffffff169060200190919050506108ab565b604051808215151515815260200191505060405180910390f35b341561017357600080fd5b6101cc600480803590602001908201803590602001908080601f01602080910402602001604051908101604052809392919081815260200183838082843782019150505050505091908035906020019091905050610a6b565b604051808215151515815260200191505060405180910390f35b34156101f157600080fd5b61021d600480803573ffffffffffffffffffffffffffffffffffffffff16906020019091905050610c4a565b604051808215151515815260200191505060405180910390f35b341561024257600080fd5b610292600480803590602001908201803590602001908080601f01602080910402602001604051908101604052809392919081815260200183838082843782019150505050505091905050610ded565b6040518082815260200191505060405180910390f35b34156102b357600080fd5b610310600480803590602001908201803590602001908080601f0160208091040260200160405190810160405280939291908181526020018383808284378201915050505050509190803560001916906020019091905050610e77565b604051808215151515815260200191505060405180910390f35b341561033557600080fd5b610361600480803573ffffffffffffffffffffffffffffffffffffffff16906020019091905050610fe8565b6040518084151515158152602001831515151581526020018260001916600019168152602001935050505060405180910390f35b34156103a057600080fd5b61040f600480803590602001908201803590602001908080601f0160208091040260200160405190810160405280939291908181526020018383808284378201915050505050509190803573ffffffffffffffffffffffffffffffffffffffff1690602001909190505061102c565b604051808215151515815260200191505060405180910390f35b341561043457600080fd5b61043c611101565b6040518082815260200191505060405180910390f35b341561045d57600080fd5b6104b6600480803590602001908201803590602001908080601f01602080910402602001604051908101604052809392919081815260200183838082843782019150505050505091908035906020019091905050611107565b604051808215151515815260200191505060405180910390f35b34156104db57600080fd5b61052b600480803590602001908201803590602001908080601f01602080910402602001604051908101604052809392919081815260200183838082843782019150505050505091905050611426565b604051808215151515815260200191505060405180910390f35b61054d61162c565b005b341561055a57600080fd5b61056261163e565b604051808273ffffffffffffffffffffffffffffffffffffffff1673ffffffffffffffffffffffffffffffffffffffff16815260200191505060405180910390f35b34156105af57600080fd5b6105db600480803573ffffffffffffffffffffffffffffffffffffffff16906020019091905050611667565b604051808215151515815260200191505060405180910390f35b341561060057600080fd5b61061a6004808035600019169060200190919050506116c0565b604051808273ffffffffffffffffffffffffffffffffffffffff1673ffffffffffffffffffffffffffffffffffffffff16815260200191505060405180910390f35b341561066757600080fd5b6106c0600480803590602001908201803590602001908080601f01602080910402602001604051908101604052809392919081815260200183838082843782019150505050505091908035906020019091905050611907565b6040518082815260200191505060405180910390f35b34156106e157600080fd5b61073a600480803590602001908201803590602001908080601f016020809104026020016040519081016040528093929190818152602001838380828437820191505050505050919080359060200190919050506119a8565b60405180826000191660001916815260200191505060405180910390f35b341561076357600080fd5b61076b611a44565b6040518082815260200191505060405180910390f35b341561078c57600080fd5b6107e5600480803590602001908201803590602001908080601f01602080910402602001604051908101604052809392919081815260200183838082843782019150505050505091908035906020019091905050611a4a565b604051808215151515815260200191505060405180910390f35b341561080a57600080fd5b6108206004808035906020019091905050611cfa565b604051808215151515815260200191505060405180910390f35b341561084557600080fd5b610895600480803590602001908201803590602001908080601f01602080910402602001604051908101604052809392919081815260200183838082843782019150505050505091905050611d67565b6040518082815260200191505060405180910390f35b6000806000809054906101000a900473ffffffffffffffffffffffffffffffffffffffff1673ffffffffffffffffffffffffffffffffffffffff163373ffffffffffffffffffffffffffffffffffffffff1614151561090957600080fd5b600460008473ffffffffffffffffffffffffffffffffffffffff1673ffffffffffffffffffffffffffffffffffffffff1681526020019081526020016000209050600460008473ffffffffffffffffffffffffffffffffffffffff1673ffffffffffffffffffffffffffffffffffffffff16815260200190815260200160002060000160009054906101000a900460ff1615156109a557600080fd5b600460008473ffffffffffffffffffffffffffffffffffffffff1673ffffffffffffffffffffffffffffffffffffffff16815260200190815260200160002060000160019054906101000a900460ff16151515610a0157600080fd5b60018160000160016101000a81548160ff0219169083151502179055508273ffffffffffffffffffffffffffffffffffffffff167fc14340847dc20a8d41f11b19d9075ecf8364c28dced76148b4042876ff64a77e60405160405180910390a26001915050919050565b60008060008060009054906101000a900473ffffffffffffffffffffffffffffffffffffffff1673ffffffffffffffffffffffffffffffffffffffff163373ffffffffffffffffffffffffffffffffffffffff16141515610acb57600080fd5b600084111515610ada57600080fd5b846040518082805190602001908083835b602083101515610b105780518252602082019150602081019050602083039250610aeb565b6001836020036101000a0380198251168184511680821785525050505050509050019150506040518091039020915060036000836000191660001916815260200190815260200160002090508060000160009054906101000a900460ff16151515610b7a57600080fd5b60018160000160006101000a81548160ff02191690831515021790555083430181600201819055507ffcacb126c3aaa30d90e02f03d7a7e8f2051e9d16d214527b1c59fc1bdf5a56ef856040518080602001828103825283818151815260200191508051906020019080838360005b83811015610c04578082015181840152602081019050610be9565b50505050905090810190601f168015610c315780820380516001836020036101000a031916815260200191505b509250505060405180910390a160019250505092915050565b60008060009054906101000a900473ffffffffffffffffffffffffffffffffffffffff1673ffffffffffffffffffffffffffffffffffffffff163373ffffffffffffffffffffffffffffffffffffffff16141515610ca757600080fd5b6000809054906101000a900473ffffffffffffffffffffffffffffffffffffffff1673ffffffffffffffffffffffffffffffffffffffff168273ffffffffffffffffffffffffffffffffffffffff1614151515610d0357600080fd5b60008273ffffffffffffffffffffffffffffffffffffffff1614151515610d2957600080fd5b8173ffffffffffffffffffffffffffffffffffffffff166000809054906101000a900473ffffffffffffffffffffffffffffffffffffffff1673ffffffffffffffffffffffffffffffffffffffff167fa1d2149652d81eb35c360c115fc7ac594124cb1ea8a5a33e9a7f5768c62869fb60405160405180910390a3816000806101000a81548173ffffffffffffffffffffffffffffffffffffffff021916908373ffffffffffffffffffffffffffffffffffffffff16021790555060019050919050565b600060036000836040518082805190602001908083835b602083101515610e295780518252602082019150602081019050602083039250610e04565b6001836020036101000a038019825116818451168082178552505050505050905001915050604051809103902060001916600019168152602001908152602001600020600201549050919050565b60008060008060009054906101000a900473ffffffffffffffffffffffffffffffffffffffff1673ffffffffffffffffffffffffffffffffffffffff163373ffffffffffffffffffffffffffffffffffffffff16141515610ed757600080fd5b846040518082805190602001908083835b602083101515610f0d5780518252602082019150602081019050602083039250610ee8565b6001836020036101000a0380198251168184511680821785525050505050509050019150506040518091039020915060036000836000191660001916815260200190815260200160002090508060000160009054906101000a900460ff161515610f7657600080fd5b438160020154111515610f8857600080fd5b8060000160019054906101000a900460ff16151515610fa657600080fd5b83816003016000836001015481526020019081526020016000208160001916905550806001016000815480929190600101919050555060019250505092915050565b60046020528060005260406000206000915090508060000160009054906101000a900460ff16908060000160019054906101000a900460ff16908060010154905083565b600060036000846040518082805190602001908083835b6020831015156110685780518252602082019150602081019050602083039250611043565b6001836020036101000a03801982511681845116808217855250505050505090500191505060405180910390206000191660001916815260200190815260200160002060050160008373ffffffffffffffffffffffffffffffffffffffff1673ffffffffffffffffffffffffffffffffffffffff16815260200190815260200160002060009054906101000a900460ff16905092915050565b60025481565b60008060008060009054906101000a900473ffffffffffffffffffffffffffffffffffffffff1673ffffffffffffffffffffffffffffffffffffffff163373ffffffffffffffffffffffffffffffffffffffff1614151561116757600080fd5b60008411151561117657600080fd5b846040518082805190602001908083835b6020831015156111ac5780518252602082019150602081019050602083039250611187565b6001836020036101000a0380198251168184511680821785525050505050509050019150506040518091039020915060036000836000191660001916815260200190815260200160002090508060000160009054906101000a900460ff1615151561121657600080fd5b60018160000160006101000a81548160ff021916908315150217905550600281600101819055507f596573000000000000000000000000000000000000000000000000000000000081600301600080815260200190815260200160002081600019169055507f4e6f000000000000000000000000000000000000000000000000000000000000816003016000600181526020019081526020016000208160001916905550834301816002018190555060018160000160016101000a81548160ff0219169083151502179055507ffcacb126c3aaa30d90e02f03d7a7e8f2051e9d16d214527b1c59fc1bdf5a56ef856040518080602001828103825283818151815260200191508051906020019080838360005b83811015611344578082015181840152602081019050611329565b50505050905090810190601f1680156113715780820380516001836020036101000a031916815260200191505b509250505060405180910390a17fe362723203e106a3a0cc6569404f4f232f6e3f82f1151b7a8f129615d9671350856040518080602001828103825283818151815260200191508051906020019080838360005b838110156113e05780820151818401526020810190506113c5565b50505050905090810190601f16801561140d5780820380516001836020036101000a031916815260200191505b509250505060405180910390a160019250505092915050565b60008060008060009054906101000a900473ffffffffffffffffffffffffffffffffffffffff1673ffffffffffffffffffffffffffffffffffffffff163373ffffffffffffffffffffffffffffffffffffffff1614151561148657600080fd5b836040518082805190602001908083835b6020831015156114bc5780518252602082019150602081019050602083039250611497565b6001836020036101000a0380198251168184511680821785525050505050509050019150506040518091039020915060036000836000191660001916815260200190815260200160002090508060000160009054906101000a900460ff16151561152557600080fd5b43816002015411151561153757600080fd5b6001816001015411151561154a57600080fd5b8060000160019054906101000a900460ff1615151561156857600080fd5b60018160000160016101000a81548160ff0219169083151502179055507fe362723203e106a3a0cc6569404f4f232f6e3f82f1151b7a8f129615d9671350846040518080602001828103825283818151815260200191508051906020019080838360005b838110156115e75780820151818401526020810190506115cc565b50505050905090810190601f1680156116145780820380516001836020036101000a031916815260200191505b509250505060405180910390a1600192505050919050565b34600160008282540192505081905550565b60008060009054906101000a900473ffffffffffffffffffffffffffffffffffffffff16905090565b6000600460008373ffffffffffffffffffffffffffffffffffffffff1673ffffffffffffffffffffffffffffffffffffffff16815260200190815260200160002060000160019054906101000a900460ff169050919050565b600080306116cc611df1565b808273ffffffffffffffffffffffffffffffffffffffff1673ffffffffffffffffffffffffffffffffffffffff168152602001915050604051809103906000f080151561171857600080fd5b90508073ffffffffffffffffffffffffffffffffffffffff166313af4035336000604051602001526040518263ffffffff167c0100000000000000000000000000000000000000000000000000000000028152600401808273ffffffffffffffffffffffffffffffffffffffff1673ffffffffffffffffffffffffffffffffffffffff168152602001915050602060405180830381600087803b15156117bd57600080fd5b6102c65a03f115156117ce57600080fd5b50505060405180519050506060604051908101604052806001151581526020016000151581526020018460001916815250600460008373ffffffffffffffffffffffffffffffffffffffff1673ffffffffffffffffffffffffffffffffffffffff16815260200190815260200160002060008201518160000160006101000a81548160ff02191690831515021790555060208201518160000160016101000a81548160ff021916908315150217905550604082015181600101906000191690559050503373ffffffffffffffffffffffffffffffffffffffff168173ffffffffffffffffffffffffffffffffffffffff167f51bbe2f7af13249092ad1057db8fa8df8696d03c72acc3af7f90c3170e5b04b08560405180826000191660001916815260200191505060405180910390a380915050919050565b600080836040518082805190602001908083835b602083101515611940578051825260208201915060208101905060208303925061191b565b6001836020036101000a0380198251168184511680821785525050505050509050019150506040518091039020905060036000826000191660001916815260200190815260200160002060040160008481526020019081526020016000205491505092915050565b600060036000846040518082805190602001908083835b6020831015156119e457805182526020820191506020810190506020830392506119bf565b6001836020036101000a038019825116818451168082178552505050505050905001915050604051809103902060001916600019168152602001908152602001600020600301600083815260200190815260200160002054905092915050565b60015481565b6000806000600460003373ffffffffffffffffffffffffffffffffffffffff1673ffffffffffffffffffffffffffffffffffffffff16815260200190815260200160002060000160019054906101000a900460ff161515611aaa57600080fd5b60036000866040518082805190602001908083835b602083101515611ae45780518252602082019150602081019050602083039250611abf565b6001836020036101000a03801982511681845116808217855250505050505090500191505060405180910390206000191660001916815260200190815260200160002091508160000160019054906101000a900460ff161515611b4657600080fd5b816001015484101515611b5857600080fd5b438260020154111515611b6a57600080fd5b8160050160003373ffffffffffffffffffffffffffffffffffffffff1673ffffffffffffffffffffffffffffffffffffffff16815260200190815260200160002060009054906101000a900460ff16151515611bc557600080fd5b8160040160008581526020019081526020016000206000815480929190600101919050555060018260050160003373ffffffffffffffffffffffffffffffffffffffff1673ffffffffffffffffffffffffffffffffffffffff16815260200190815260200160002060006101000a81548160ff0219169083151502179055506002546001600082825403925050819055503390508073ffffffffffffffffffffffffffffffffffffffff1663aacc7e6f6002546000604051602001526040518263ffffffff167c01000000000000000000000000000000000000000000000000000000000281526004016020604051808303818588803b1515611cc757600080fd5b6125ee5a03f11515611cd857600080fd5b50505050604051805190501515611cee57600080fd5b60019250505092915050565b60008060009054906101000a900473ffffffffffffffffffffffffffffffffffffffff1673ffffffffffffffffffffffffffffffffffffffff163373ffffffffffffffffffffffffffffffffffffffff16141515611d5757600080fd5b8160028190555060019050919050565b600060036000836040518082805190602001908083835b602083101515611da35780518252602082019150602081019050602083039250611d7e565b6001836020036101000a038019825116818451168082178552505050505050905001915050604051809103902060001916600019168152602001908152602001600020600101549050919050565b6040516107d980611e028339019056006060604052341561000f57600080fd5b6040516020806107d983398101604052808051906020019091905050336000806101000a81548173ffffffffffffffffffffffffffffffffffffffff021916908373ffffffffffffffffffffffffffffffffffffffff16021790555060008173ffffffffffffffffffffffffffffffffffffffff161415151561009157600080fd5b80600160006101000a81548173ffffffffffffffffffffffffffffffffffffffff021916908373ffffffffffffffffffffffffffffffffffffffff160217905550506106f7806100e26000396000f300606060405260043610610083576000357c0100000000000000000000000000000000000000000000000000000000900463ffffffff16806313af403514610088578063893d20e8146100d9578063a7a295f51461012e578063aacc7e6f14610183578063ad33513f146101a5578063b2d5ae44146101ce578063e3b9e2fa146101fb575b600080fd5b341561009357600080fd5b6100bf600480803573ffffffffffffffffffffffffffffffffffffffff16906020019091905050610279565b604051808215151515815260200191505060405180910390f35b34156100e457600080fd5b6100ec61041c565b604051808273ffffffffffffffffffffffffffffffffffffffff1673ffffffffffffffffffffffffffffffffffffffff16815260200191505060405180910390f35b341561013957600080fd5b610141610445565b604051808273ffffffffffffffffffffffffffffffffffffffff1673ffffffffffffffffffffffffffffffffffffffff16815260200191505060405180910390f35b61018b61046b565b604051808215151515815260200191505060405180910390f35b34156101b057600080fd5b6101b8610484565b6040518082815260200191505060405180910390f35b34156101d957600080fd5b6101e161048a565b604051808215151515815260200191505060405180910390f35b341561020657600080fd5b61025f600480803590602001908201803590602001908080601f0160208091040260200160405190810160405280939291908181526020018383808284378201915050505050509190803590602001909190505061053d565b604051808215151515815260200191505060405180910390f35b60008060009054906101000a900473ffffffffffffffffffffffffffffffffffffffff1673ffffffffffffffffffffffffffffffffffffffff163373ffffffffffffffffffffffffffffffffffffffff161415156102d657600080fd5b6000809054906101000a900473ffffffffffffffffffffffffffffffffffffffff1673ffffffffffffffffffffffffffffffffffffffff168273ffffffffffffffffffffffffffffffffffffffff161415151561033257600080fd5b60008273ffffffffffffffffffffffffffffffffffffffff161415151561035857600080fd5b8173ffffffffffffffffffffffffffffffffffffffff166000809054906101000a900473ffffffffffffffffffffffffffffffffffffffff1673ffffffffffffffffffffffffffffffffffffffff167fa1d2149652d81eb35c360c115fc7ac594124cb1ea8a5a33e9a7f5768c62869fb60405160405180910390a3816000806101000a81548173ffffffffffffffffffffffffffffffffffffffff021916908373ffffffffffffffffffffffffffffffffffffffff16021790555060019050919050565b60008060009054906101000a900473ffffffffffffffffffffffffffffffffffffffff16905090565b600160009054906101000a900473ffffffffffffffffffffffffffffffffffffffff1681565b6000346002600082825401925050819055506001905090565b60025481565b6000806000809054906101000a900473ffffffffffffffffffffffffffffffffffffffff1673ffffffffffffffffffffffffffffffffffffffff163373ffffffffffffffffffffffffffffffffffffffff161415156104e857600080fd5b600254905060006002819055503373ffffffffffffffffffffffffffffffffffffffff166108fc829081150290604051600060405180830381858888f19350505050151561053557600080fd5b600191505090565b6000806000809054906101000a900473ffffffffffffffffffffffffffffffffffffffff1673ffffffffffffffffffffffffffffffffffffffff163373ffffffffffffffffffffffffffffffffffffffff1614151561059b57600080fd5b600160009054906101000a900473ffffffffffffffffffffffffffffffffffffffff1690508073ffffffffffffffffffffffffffffffffffffffff1663e3b9e2fa85856000604051602001526040518363ffffffff167c01000000000000000000000000000000000000000000000000000000000281526004018080602001838152602001828103825284818151815260200191508051906020019080838360005b8381101561065857808201518184015260208101905061063d565b50505050905090810190601f1680156106855780820380516001836020036101000a031916815260200191505b509350505050602060405180830381600087803b15156106a457600080fd5b6102c65a03f115156106b557600080fd5b50505060405180519050506001915050929150505600a165627a7a7230582050c0227a43811487c1f2245ee9f1e21ed8ceb0c9eee4beae4aabde9cbb3716b10029a165627a7a72305820422c46bf45fab17ff04aa66cd8ffd57bc99c8fef8fdf2d8f4a8b84074adfab050029",
  "source": "pragma solidity ^0.4.13;\n\nimport \"./Owned.sol\";\nimport \"./Voter.sol\";\n\ncontract Localbody is Owned {\n\n    struct QuestionDetails {\n        bool isValid;\n        bool isApproved;\n        uint numOptions;\n        uint deadline;\n        mapping(uint => bytes32) options;\n        mapping(uint => uint) votes;\n        mapping(address => bool) hasVoted;\n    }\n\n    struct VoterDetails {\n        bool isValid;\n        bool isApproved;\n        bytes32 secret;\n    }\n\n    uint public balance;\n    uint public voterBaseRefund;\n    mapping(bytes32 => QuestionDetails) internal questionMap;\n    mapping(address => VoterDetails) public voterMap;\n\n    event LogQuestionAdded(string question);\n    event LogQuestionApproved(string question);\n    event LogVoterApprovalPending(\n            address indexed voterAddress,\n            address indexed ownerAddress,\n            bytes32 secret);\n    event LogVoterApproved(address indexed voterAddress);\n\n    function Localbody(uint _voterBaseRefund)\n    {\n        voterBaseRefund = _voterBaseRefund;\n    }\n\n    function addEther()\n        public\n        payable\n    {\n        balance += msg.value;\n    }\n\n    function addQuestion(string question, uint deadline)\n        public\n        fromOwner\n        returns(bool)\n    {\n        require(deadline > 0);\n        bytes32 questionHash = keccak256(question);\n        QuestionDetails storage questionState = questionMap[questionHash];\n        require(!questionState.isValid);\n\n        questionState.isValid = true;\n        questionState.deadline = block.number + deadline;\n\n        LogQuestionAdded(question);\n\n        return true;\n    }\n\n    function addOption(string question, bytes32 option)\n        public\n        fromOwner\n        returns(bool)\n    {\n        bytes32 questionHash = keccak256(question);\n        QuestionDetails storage questionState = questionMap[questionHash];\n        require(questionState.isValid);\n        require(questionState.deadline > block.number);\n        require(!questionState.isApproved);\n\n        questionState.options[questionState.numOptions] = option;\n        questionState.numOptions++;\n\n        return true;\n    }\n\n    function approveQuestion(string question)\n        public\n        fromOwner\n        returns(bool)\n    {\n        bytes32 questionHash = keccak256(question);\n        QuestionDetails storage questionState = questionMap[questionHash];\n        require(questionState.isValid);\n        require(questionState.deadline > block.number);\n        require(questionState.numOptions > 1);\n        require(!questionState.isApproved);\n\n        questionState.isApproved = true;\n\n        LogQuestionApproved(question);\n\n        return true;\n    }\n\n    function addYesNoQuestion(string question, uint deadline)\n        public\n        fromOwner\n        returns(bool)\n    {\n        require(deadline > 0);\n        bytes32 questionHash = keccak256(question);\n        QuestionDetails storage questionState = questionMap[questionHash];\n        require(!questionState.isValid);\n\n        questionState.isValid = true;\n        questionState.numOptions = 2;\n        questionState.options[0] = bytes32(\"Yes\");\n        questionState.options[1] = bytes32(\"No\");\n        questionState.deadline = block.number + deadline;\n        questionState.isApproved = true;\n\n        LogQuestionAdded(question);\n        LogQuestionApproved(question);\n\n        return true;\n    }\n\n    function createVoter(bytes32 secret)\n        public\n        returns(Voter)\n    {\n        Voter voter = new Voter(address(this));\n        voter.setOwner(msg.sender);\n        voterMap[address(voter)] = VoterDetails(true, false, secret);\n\n        LogVoterApprovalPending(address(voter), msg.sender, secret);\n\n        return voter;\n    }\n\n    function approveVoter(address voterAddress)\n        public\n        fromOwner\n        returns(bool)\n    {\n        VoterDetails storage voterState = voterMap[voterAddress];\n        require(voterMap[voterAddress].isValid);\n        require(!voterMap[voterAddress].isApproved);\n\n        voterState.isApproved = true;\n\n        LogVoterApproved(voterAddress);\n\n        return true;\n    }\n\n    function castVote(string question, uint index)\n        public\n        returns(bool)\n    {\n        require(voterMap[msg.sender].isApproved);\n        QuestionDetails storage questionState = questionMap[keccak256(question)];\n        require(questionState.isApproved);\n        require(index < questionState.numOptions);\n        require(questionState.deadline > block.number);\n        require(!questionState.hasVoted[msg.sender]);\n\n        questionState.votes[index]++;\n        questionState.hasVoted[msg.sender] = true;\n        balance -= voterBaseRefund;\n        Voter voter = Voter(msg.sender);\n        require(voter.acceptAmount.value(voterBaseRefund)());\n\n        return true;\n    }\n\n    function setVoterBaseRefund(uint amount)\n        public\n        fromOwner\n        returns(bool)\n    {\n        voterBaseRefund = amount;\n\n        return true;\n    }\n\n    function getOption(string question, uint index)\n        constant\n        public\n        returns(bytes32)\n    {\n        return questionMap[keccak256(question)].options[index];\n    }\n\n    function getVotes(string question, uint index)\n        constant\n        public\n        returns(uint)\n    {\n        bytes32 questionHash = keccak256(question);\n\n        return questionMap[questionHash].votes[index];\n    }\n\n    function getVoterApprovedStatus(address voterAddress)\n        constant\n        public\n        returns(bool)\n    {\n        return voterMap[voterAddress].isApproved;\n    }\n\n    function getQuestionDeadline(string question)\n        constant\n        public\n        returns(uint)\n    {\n        return questionMap[keccak256(question)].deadline;\n    }\n\n    function hasUserVoted(string question, address voter)\n        constant\n        public\n        returns(bool)\n     {\n         return questionMap[keccak256(question)].hasVoted[voter];\n     }\n\n     function getNumOptions(string question)\n        constant\n        public\n        returns(uint)\n     {\n         return questionMap[keccak256(question)].numOptions;\n     }\n\n}\n",
  "sourcePath": "/Users/Tekfyl/Downloads/EasyVote/contracts/Localbody.sol",
  "compiler": {
    "name": "solc",
    "version": "0.4.19+commit.c4cbbb05.Emscripten.clang"
  },
  "schemaVersion": "2.0.0",
  "updatedAt": "2018-03-20T04:08:42.407Z"
}