{
  "contractName": "Owned",
  "abi": [
    {
      "inputs": [],
      "payable": false,
      "stateMutability": "nonpayable",
      "type": "constructor"
    },
    {
      "anonymous": false,
      "inputs": [
        {
          "indexed": true,
          "name": "previousOwner",
          "type": "address"
        },
        {
          "indexed": true,
          "name": "newOwner",
          "type": "address"
        }
      ],
      "name": "LogOwnerSet",
      "type": "event"
    },
    {
      "constant": true,
      "inputs": [],
      "name": "getOwner",
      "outputs": [
        {
          "name": "",
          "type": "address"
        }
      ],
      "payable": false,
      "stateMutability": "view",
      "type": "function"
    },
    {
      "constant": false,
      "inputs": [
        {
          "name": "newOwner",
          "type": "address"
        }
      ],
      "name": "setOwner",
      "outputs": [
        {
          "name": "",
          "type": "bool"
        }
      ],
      "payable": false,
      "stateMutability": "nonpayable",
      "type": "function"
    }
  ],
  "bytecode": "0x6060604052341561000f57600080fd5b336000806101000a81548173ffffffffffffffffffffffffffffffffffffffff021916908373ffffffffffffffffffffffffffffffffffffffff1602179055506102ef8061005e6000396000f30060606040526004361061004c576000357c0100000000000000000000000000000000000000000000000000000000900463ffffffff16806313af403514610051578063893d20e8146100a2575b600080fd5b341561005c57600080fd5b610088600480803573ffffffffffffffffffffffffffffffffffffffff169060200190919050506100f7565b604051808215151515815260200191505060405180910390f35b34156100ad57600080fd5b6100b561029a565b604051808273ffffffffffffffffffffffffffffffffffffffff1673ffffffffffffffffffffffffffffffffffffffff16815260200191505060405180910390f35b60008060009054906101000a900473ffffffffffffffffffffffffffffffffffffffff1673ffffffffffffffffffffffffffffffffffffffff163373ffffffffffffffffffffffffffffffffffffffff1614151561015457600080fd5b6000809054906101000a900473ffffffffffffffffffffffffffffffffffffffff1673ffffffffffffffffffffffffffffffffffffffff168273ffffffffffffffffffffffffffffffffffffffff16141515156101b057600080fd5b60008273ffffffffffffffffffffffffffffffffffffffff16141515156101d657600080fd5b8173ffffffffffffffffffffffffffffffffffffffff166000809054906101000a900473ffffffffffffffffffffffffffffffffffffffff1673ffffffffffffffffffffffffffffffffffffffff167fa1d2149652d81eb35c360c115fc7ac594124cb1ea8a5a33e9a7f5768c62869fb60405160405180910390a3816000806101000a81548173ffffffffffffffffffffffffffffffffffffffff021916908373ffffffffffffffffffffffffffffffffffffffff16021790555060019050919050565b60008060009054906101000a900473ffffffffffffffffffffffffffffffffffffffff169050905600a165627a7a72305820d064e4df2b55b1f2468808ce162b74c65d3e70ee262cd4368b71b13ac2285ab70029",
  "source": "pragma solidity ^0.4.13;\n\ncontract Owned {\n\n    address internal owner;\n\n    event LogOwnerSet(address indexed previousOwner, address indexed newOwner);\n\n    modifier fromOwner() {\n        require(msg.sender == owner);\n        _;\n    }\n\n    function Owned() {\n        owner = msg.sender;\n    }\n\n    function getOwner()\n        constant\n        public\n        returns(address)\n    {\n        return owner;\n    }\n\n    function setOwner(address newOwner)\n        fromOwner\n        returns(bool)\n    {\n        require(newOwner != owner);\n        require(newOwner != 0);\n\n        LogOwnerSet(owner, newOwner);\n        owner = newOwner;\n\n        return true;\n    }\n\n}\n",
  "sourcePath": "/Users/Tekfyl/Downloads/EasyVote/contracts/Owned.sol",
  "compiler": {
    "name": "solc",
    "version": "0.4.19+commit.c4cbbb05.Emscripten.clang"
  },
  "schemaVersion": "2.0.0",
  "updatedAt": "2018-03-18T05:16:06.476Z"
}