{
  "contractName": "Voter",
  "abi": [
    {
      "constant": false,
      "inputs": [
        {
          "name": "newOwner",
          "type": "address"
        }
      ],
      "name": "setOwner",
      "outputs": [
        {
          "name": "",
          "type": "bool"
        }
      ],
      "payable": false,
      "stateMutability": "nonpayable",
      "type": "function"
    },
    {
      "constant": true,
      "inputs": [],
      "name": "getOwner",
      "outputs": [
        {
          "name": "",
          "type": "address"
        }
      ],
      "payable": false,
      "stateMutability": "view",
      "type": "function"
    },
    {
      "constant": true,
      "inputs": [],
      "name": "localBodyAddress",
      "outputs": [
        {
          "name": "",
          "type": "address"
        }
      ],
      "payable": false,
      "stateMutability": "view",
      "type": "function"
    },
    {
      "constant": true,
      "inputs": [],
      "name": "refundAmount",
      "outputs": [
        {
          "name": "",
          "type": "uint256"
        }
      ],
      "payable": false,
      "stateMutability": "view",
      "type": "function"
    },
    {
      "inputs": [
        {
          "name": "_localBodyAddress",
          "type": "address"
        }
      ],
      "payable": false,
      "stateMutability": "nonpayable",
      "type": "constructor"
    },
    {
      "anonymous": false,
      "inputs": [
        {
          "indexed": true,
          "name": "previousOwner",
          "type": "address"
        },
        {
          "indexed": true,
          "name": "newOwner",
          "type": "address"
        }
      ],
      "name": "LogOwnerSet",
      "type": "event"
    },
    {
      "constant": false,
      "inputs": [
        {
          "name": "question",
          "type": "string"
        },
        {
          "name": "index",
          "type": "uint256"
        }
      ],
      "name": "castVote",
      "outputs": [
        {
          "name": "",
          "type": "bool"
        }
      ],
      "payable": false,
      "stateMutability": "nonpayable",
      "type": "function"
    },
    {
      "constant": false,
      "inputs": [],
      "name": "getRefund",
      "outputs": [
        {
          "name": "",
          "type": "bool"
        }
      ],
      "payable": false,
      "stateMutability": "nonpayable",
      "type": "function"
    },
    {
      "constant": false,
      "inputs": [],
      "name": "acceptAmount",
      "outputs": [
        {
          "name": "",
          "type": "bool"
        }
      ],
      "payable": true,
      "stateMutability": "payable",
      "type": "function"
    }
  ],
  "bytecode": "0x6060604052341561000f57600080fd5b6040516020806107d983398101604052808051906020019091905050336000806101000a81548173ffffffffffffffffffffffffffffffffffffffff021916908373ffffffffffffffffffffffffffffffffffffffff16021790555060008173ffffffffffffffffffffffffffffffffffffffff161415151561009157600080fd5b80600160006101000a81548173ffffffffffffffffffffffffffffffffffffffff021916908373ffffffffffffffffffffffffffffffffffffffff160217905550506106f7806100e26000396000f300606060405260043610610083576000357c0100000000000000000000000000000000000000000000000000000000900463ffffffff16806313af403514610088578063893d20e8146100d9578063a7a295f51461012e578063aacc7e6f14610183578063ad33513f146101a5578063b2d5ae44146101ce578063e3b9e2fa146101fb575b600080fd5b341561009357600080fd5b6100bf600480803573ffffffffffffffffffffffffffffffffffffffff16906020019091905050610279565b604051808215151515815260200191505060405180910390f35b34156100e457600080fd5b6100ec61041c565b604051808273ffffffffffffffffffffffffffffffffffffffff1673ffffffffffffffffffffffffffffffffffffffff16815260200191505060405180910390f35b341561013957600080fd5b610141610445565b604051808273ffffffffffffffffffffffffffffffffffffffff1673ffffffffffffffffffffffffffffffffffffffff16815260200191505060405180910390f35b61018b61046b565b604051808215151515815260200191505060405180910390f35b34156101b057600080fd5b6101b8610484565b6040518082815260200191505060405180910390f35b34156101d957600080fd5b6101e161048a565b604051808215151515815260200191505060405180910390f35b341561020657600080fd5b61025f600480803590602001908201803590602001908080601f0160208091040260200160405190810160405280939291908181526020018383808284378201915050505050509190803590602001909190505061053d565b604051808215151515815260200191505060405180910390f35b60008060009054906101000a900473ffffffffffffffffffffffffffffffffffffffff1673ffffffffffffffffffffffffffffffffffffffff163373ffffffffffffffffffffffffffffffffffffffff161415156102d657600080fd5b6000809054906101000a900473ffffffffffffffffffffffffffffffffffffffff1673ffffffffffffffffffffffffffffffffffffffff168273ffffffffffffffffffffffffffffffffffffffff161415151561033257600080fd5b60008273ffffffffffffffffffffffffffffffffffffffff161415151561035857600080fd5b8173ffffffffffffffffffffffffffffffffffffffff166000809054906101000a900473ffffffffffffffffffffffffffffffffffffffff1673ffffffffffffffffffffffffffffffffffffffff167fa1d2149652d81eb35c360c115fc7ac594124cb1ea8a5a33e9a7f5768c62869fb60405160405180910390a3816000806101000a81548173ffffffffffffffffffffffffffffffffffffffff021916908373ffffffffffffffffffffffffffffffffffffffff16021790555060019050919050565b60008060009054906101000a900473ffffffffffffffffffffffffffffffffffffffff16905090565b600160009054906101000a900473ffffffffffffffffffffffffffffffffffffffff1681565b6000346002600082825401925050819055506001905090565b60025481565b6000806000809054906101000a900473ffffffffffffffffffffffffffffffffffffffff1673ffffffffffffffffffffffffffffffffffffffff163373ffffffffffffffffffffffffffffffffffffffff161415156104e857600080fd5b600254905060006002819055503373ffffffffffffffffffffffffffffffffffffffff166108fc829081150290604051600060405180830381858888f19350505050151561053557600080fd5b600191505090565b6000806000809054906101000a900473ffffffffffffffffffffffffffffffffffffffff1673ffffffffffffffffffffffffffffffffffffffff163373ffffffffffffffffffffffffffffffffffffffff1614151561059b57600080fd5b600160009054906101000a900473ffffffffffffffffffffffffffffffffffffffff1690508073ffffffffffffffffffffffffffffffffffffffff1663e3b9e2fa85856000604051602001526040518363ffffffff167c01000000000000000000000000000000000000000000000000000000000281526004018080602001838152602001828103825284818151815260200191508051906020019080838360005b8381101561065857808201518184015260208101905061063d565b50505050905090810190601f1680156106855780820380516001836020036101000a031916815260200191505b509350505050602060405180830381600087803b15156106a457600080fd5b6102c65a03f115156106b557600080fd5b50505060405180519050506001915050929150505600a165627a7a7230582050c0227a43811487c1f2245ee9f1e21ed8ceb0c9eee4beae4aabde9cbb3716b10029",
  "source": "pragma solidity ^0.4.13;\n\nimport \"./Owned.sol\";\nimport \"./Localbody.sol\";\n\ncontract Voter is Owned {\n\n    address public localBodyAddress;\n    uint public refundAmount;\n\n    function Voter(address _localBodyAddress) {\n        require(_localBodyAddress != 0);\n\n        localBodyAddress = _localBodyAddress;\n    }\n\n    function castVote(string question, uint index)\n        public\n        fromOwner\n        returns(bool)\n    {\n        Localbody localBody = Localbody(localBodyAddress);\n        localBody.castVote(question, index);\n\n        return true;\n    }\n\n    function getRefund()\n        public\n        fromOwner\n        returns(bool)\n    {\n        uint amount = refundAmount;\n        refundAmount = 0;\n        msg.sender.transfer(amount);\n\n        return true;\n    }\n\n    function acceptAmount()\n        public\n        payable\n        returns(bool)\n    {\n        refundAmount += msg.value;\n\n        return true;\n    }\n\n}\n",
  "sourcePath": "/Users/Tekfyl/Downloads/EasyVote/contracts/Voter.sol",
  "compiler": {
    "name": "solc",
    "version": "0.4.19+commit.c4cbbb05.Emscripten.clang"
  },
  "schemaVersion": "2.0.0",
  "updatedAt": "2018-03-20T04:08:42.394Z"
}